:020000040800F2
:10000000A00B002001010008832500082F21000813
:1000100081250008250A0008612D00080000000065
:10002000000000000000000000000000B5280008EB
:10003000550A000800000000B32800080D29000838
:100040001B0100081B0100081B0100081B01000820
:100050001B0100081B0100081B0100081B01000810
:100060001B0100081B0100081B0100081B01000800
:100070001B0100081B0100081B0100081B010008F0
:100080001B0100081B0100081B0100081B010008E0
:100090001B0100081B0100081B0100081B010008D0
:1000A0001B0100081B0100081B0100081B010008C0
:1000B000712900087D290008892900081B01000812
:1000C0001B0100081B0100081B0100081B010008A0
:1000D0001B010008492D0008552D00081B010008D0
:1000E0001B0100081B0100081B010008DFF80CD0F1
:1000F00000F086FC00480047D13B0008A00B002020
:100100000648804706480047FEE7FEE7FEE7FEE7B1
:10011000FEE7FEE7FEE7FEE7FEE7FEE76D290008E3
:10012000ED000008202A04DB203A21FA02F0002129
:10013000704721FA02F3D040C2F1200291400843F7
:100140001946704740EA01039B0703D009E008C93C
:10015000121F08C0042AFAD203E011F8013B00F88C
:10016000013B521EF9D27047D2B201E000F8012BD8
:10017000491EFBD270470022F6E710B513460A4627
:1001800004461946FFF7F0FF204610BDF0B480EAA0
:100190000102D40F4200B2EB410F02D202460846E0
:1001A00011464A0042D0C30DDDB2C1F3C752AD1AA9
:1001B000202D35DAC1F3160141F4000204B1524298
:1001C000C5F1200602FA06F12A411044B3EBD05FD4
:1001D00023D0C4B1012DA0EBC35009DCF0BC4FF01B
:1001E000004202EAC352DBB200F5000000F04DBB52
:1001F000400000F1807000EBC350A0F1807040EA35
:10020000D170490009E0490841EAC071A0EBC35030
:1002100000F50000400800EBC350F0BC00F02CBB20
:100220006142012202EB4101001BF6E7F0BC70477E
:1002300081F00041AAE780F00040A7E780EA0102D0
:1002400010B502F00043400022D04A001FD0010E3A
:1002500001EB1261C0F35600C2F3560240F40000F5
:1002600042F40002A0FB022000047F39140400D0F5
:10027000401C50EA124001D44000491EC2B20C0694
:1002800004EBD010401C4008802A02D003E000207C
:1002900010BD20F00100002900DA0020184310BD35
:1002A00030B480EA010202F0004530F0004221F053
:1002B000004013D090B1C30DD40DC2F31601C0F3AA
:1002C0001600E41A41F4000140F400027D3491422A
:1002D00001D3641C00E04900002C02DA30BC00208D
:1002E00070474FF400000023914201D3891A034361
:1002F00040084FEA4101F7D151B1914202D14FF08C
:10030000004105E002D24FF0010101E06FF0010170
:1003100003EBC450284430BC00F0AEBA420005D014
:10032000C0F3C7525242914201DC0020704700EBFB
:10033000C15070472DE9FE4F804681EA0300C00F8F
:100340000C46009021F0004123F00045B8EB02007C
:10035000A94105D24046214690461C460B4602461E
:1003600023F00040104347D0270DC7F30A00C3F322
:100370000A510290401A019040286BDAC3F313002F
:1003800040F4801B0098924620B10023D2EB030A70
:1003900063EB0B0B01985946C0F14002504600F048
:1003A0004AFA06460D4650465946019A00F052FA5E
:1003B00010EB08006141002487EA115284EAE773D8
:1003C0001A4340D0009A62B3019A012A4FEA0752B9
:1003D00015DC001B61EB02014FF0004202EA0752FC
:1003E000CDE90042001C41F5801132462B4600F059
:1003F00089FA03B0BDE8F08F40462146F9E7001BBB
:1004000061EB0201001C41F5801300185B412018CC
:10041000A2F5001747EB030140EAD570B6196D410C
:1004200011E06D084FEA360645EAC0754FEA0752FB
:10043000001B61EB0201001C41F5801149084FEAE5
:1004400030000019514132462B4603B0BDE8F04F51
:1004500000F049BA0098012240000023D0EB0202CC
:1004600063EBE073009821464FEAE074B8EB0000BC
:1004700061EB0401E9E783F000435BE781F00041B1
:1004800058E72DE9FE4F81EA030404F0004421F00F
:10049000004100944FF0000B23F0004350EA0104A8
:1004A0005ED052EA03045BD0C3F30A54C1F30A5589
:1004B0002C44A4F2F3340194A0FB0254C1F31301C1
:1004C00041F48011C3F3130343F4801301FB02448E
:1004D00000FB034E840A970A44EA815447EA835793
:1004E000A4FB076802958D0A05FB07854FEA932C4C
:1004F00004FB0C542705029D4FEA065847EA1637BD
:10050000B5EB08056EEB070C870E920E47EA8117D4
:1005100042EA8312A7FB0201B6EB0B0164EB000475
:100520002B0D43EA0C335E1844EB1C50DA4651465F
:10053000E7FB0201C5F313044FEA0B3343EA1453FC
:100540004FEA0432019C43EA0603A4F10C0402942E
:10055000009CCDE900B400F0D5F903B0BDE8F08F00
:1005600000200146F9E72DE9F04D81EA030404F08B
:10057000004B21F0004514464FF0000A23F00041E3
:1005800050EA050220D054EA01021DD0C5F30A57F3
:100590000246C5F31303C1F31300C1F30A5640F436
:1005A000801543F48013A7EB0608101BD64608F20B
:1005B000FD3873EB050002D308F1010801E0921841
:1005C0005B41B8F1000F03DA00200146BDE8F08D71
:1005D00000204FF48011064684460EE0171B73EB93
:1005E000050705D3121B63EB050306434CEA010C18
:1005F00049084FEA300092185B4150EA0107EDD1FB
:1006000052EA030012D082EA040083EA050108439B
:1006100005D0101BAB4106D20122002306E00022C8
:100620004FF0004302E06FF0010253101AEB060096
:100630004CEB085110EB0A0041EB0B01BDE8F04D0B
:1006400000F051B9C10F80EAE0700844CA07962350
:10065000002100F01AB996230022114600F015B9C6
:100660000EB5C10F80EAE0700844CA07002140F2CD
:1006700033438DE80E000A460B4600F043F903B001
:1006800000BD00F0004220F00040C10DC0F3160094
:1006900040F400007F2901DA00207047962903DC2E
:1006A000C1F19601C84001E096398840002AF4D093
:1006B0004042704770B5C1F30A5201F00045002472
:1006C000C1F3130140F2FF3341F480119A4201DA81
:1006D000002070BD40F233439A42A2F2334203DC61
:1006E0005242FFF71FFD00E090402C43F1D0404202
:1006F00070BD00F0004230F000400AD0C10D01F59D
:100700006071C0F3160042EA0151C208400711436C
:10071000704700200146704730B5041E71F1000497
:1007200004DB4FF00044404264EB0101141E73F1FE
:10073000000405DB1C464FF00043524263EB040308
:100740008B4208BF824230BD01F0004330B421F03B
:10075000004150EA010206D00A0DA2F56072C1F311
:100760001301002A02DC30BC00207047440F44EA29
:10077000C104C100E01830BC00EBC25000F07CB8EE
:10078000002801DBC0F10040002901DBC1F100417C
:1007900081427047002801DBC0F10040002901DBE5
:1007A000C1F100418842704730B50B460146002038
:1007B0002022012409E021FA02F59D4205D303FA23
:1007C00002F5491B04FA02F52844151EA2F10102A4
:1007D000F1DC30BD2DE9F05F0546002092469B46D6
:1007E00088460646814640241BE028464146474647
:1007F0002246FFF797FC53465A46C01A914110D340
:1008000011461846224600F016F82D1A67EB01082B
:100810004F4622460120002100F00DF817EB000999
:100820004E41201EA4F10104DFDC484631462A4631
:100830004346BDE8F09F202A04DB203A00FA02F18B
:10084000002070479140C2F1200320FA03F31943BE
:1008500090407047202A06DBCB17203A41FA02F07D
:1008600043EAE07306E041FA02F3D040C2F120020D
:1008700091400843194670470029A8BF7047401CA3
:10088000490008BF20F00100704710B4B0FA80FCA6
:1008900000FA0CF050EA010404BF10BC704749B1E3
:1008A000CCF1200421FA04F411FA0CF118BF012153
:1008B00021430843A3EB0C01CB1D4FEA00614FEA33
:1008C000102042BF002010BC704700EBC350104402
:1008D0000029A4BF10BC7047401C490008BF20F08D
:1008E000010010BC704710B5141E73F1000408DA43
:1008F000401C41F1000192185B411A4301D120F0E4
:10090000010010BD2DE9F04D92469B4611B1B1FAA0
:1009100081F202E0B0FA80F220329046FFF78BFFBE
:1009200004460F4640EA0A0041EA0B0153465A4684
:10093000084313D0114653EA010019D0C8F1400210
:100940005046FFF7EFFB05460E46504659464246D5
:10095000FFF771FF084305D0012004E02046394627
:10096000BDE8F08D0020054346EAE0762C4337438E
:100970000A986305E40AA0EB08000022FD0A44EA95
:1009800047540A3002D500200146E9E70105101955
:100990006941DDE9084500196941BDE8F04DA2E76C
:1009A000C1F30A52C1F3130140F2FF3341F4801145
:1009B0009A4202DA00200146704740F233439A42DD
:1009C000A2F2334202DC5242FFF7ACBBFFF733BF67
:1009D00030B5041E71F1000404DB4FF000444042C6
:1009E00064EB0101141E73F1000405DB1C464FF09B
:1009F0000043524263EB0403994208BF904230BD6A
:100A0000064C074D06E0E06840F0010394E807005B
:100A100098471034AC42F6D3FFF76CFB64600008D3
:100A200084600008FEE7000070B5094D044601220D
:100A30008021284600F05BF900E0641E002CFCDCFD
:100A40002846BDE870400022802100F050B9000027
:100A500000080140704772B6FEE7000010B590F83C
:100A600021100024022903D00421816301243DE0E8
:100A700001680A6822F00E020A6001680A6822F022
:100A800001020A601A4A0168914201D1012121E064
:100A9000174A1432914201D110211BE0144A283226
:100AA000914201D1891515E0114A3C32914201D1A0
:100AB00089140FE00E4A5032914202D14FF4803136
:100AC00008E00B4A6432914202D14FF4801101E0F8
:100AD0004FF08071064A083A5160012180F82110D8
:100AE000002180F82010416B01B18847204610BDDD
:100AF0000800024070B5044600F0FEF80546601C90
:100B000002D004480078044400F0F6F8401BA042EC
:100B1000FAD370BD040000202DE9F84FDFF8A4914E
:100B2000002409F1040A0AF1040B23464FF00F08D0
:100B30000BF1040EBEE00127A7403A40BA4272D141
:100B4000DFF884C14D68A5EB0C0665452BD00DDCA4
:100B5000032D34D005DC35B3012D19D0022D2FD152
:100B60001BE0112D16D0122D2AD119E0B6F5881FE1
:100B700019D006DCB6F5803F15D0B6F5801F1FD121
:100B800011E0B6F5001F0ED0B6F5041F18D10AE02B
:100B9000CB6815E0CB681B1D12E0CB6808330FE073
:100BA000CB680C330CE08B682BB1012B4FF00803A2
:100BB00003D0476104E0042302E0076100E0002362
:100BC000FF2A01D8064601E000F104064FEA840539
:100BD00001D9A5F12005376808FA05FC27EA0C07BA
:100BE00003FA05F547EA050737604D68ED0060D563
:100BF000364DAE6946F00106AE61AD6924F00306DC
:100C000005F001050095324D7719BE68A5072D0F37
:100C100008FA05FC26EA0C06DFF8B8C0604503D1E7
:100C20004FF0000C17E044E0DFF8ACC0604502D1A3
:100C30004FF0010C0FE0DFF8A4C0604502D14FF087
:100C4000020C08E0DFF898C0604502D14FF0030CB9
:100C500001E04FF0040C0CFA05FC4CEA060CC7F856
:100C600008C04D68D9F80060ED034D4601D5164324
:100C700000E096432E604D68DAF80060AD035546FB
:100C800001D5164300E096432E604D68DBF8006006
:100C9000ED025D4601D5164300E096432E604D6897
:100CA000DEF80060AD02754601D5164300E09643BC
:100CB0002E60641C0A6832FA04F57FF43CAFBDE88C
:100CC000F88F0000000401400000111000100240E5
:100CD0000000014000080140000C014000100140EC
:100CE000001401408068084000D0012070470AB11C
:100CF000016170470904FBE7014880687047000004
:100D00000400002002488168027811448160704725
:100D100004000020074810B5016841F0100101608F
:100D2000032000F079F8002000F006F800F024F825
:100D3000002010BD0020024070B50D4D04464FF458
:100D40007A712878B1FBF0F00A490968B1FBF0F03C
:100D500000F0F2FA48B9102C07D200222146501EAA
:100D600000F03AF800206C6070BD012070BD0000FA
:100D700004000020100000200E4808B5816941F0F1
:100D800001018161816901F001010091C16941F0B6
:100D90008051C161C06900F080500090052000F0D2
:100DA0003BF80549486820F0E06040F0007048607A
:100DB00008BD00000010024000000140002809DBCF
:100DC00000F01F02012191404009800000F1E02065
:100DD000C0F8001170470000F0B40E4B1B68C3F35D
:100DE0000223C3F10704042C00D904241D1D072D80
:100DF00001D2002300E0DB1E012606FA04F56D1E79
:100E00000D409D409E40761E164045EA0601F0BC0E
:100E100001F0BCBF0CED00E0064A00F007011068CD
:100E20004FF6FF03184040EA0120034908431060D1
:100E3000704700000CED00E00000FA052DE9F047D6
:100E40000D46040067D0DFF81881D8F8000000F0E4
:100E50000700A8420CD2D8F8001021F0070129435E
:100E6000C8F80010D8F8000000F00700A84252D1DE
:100E700020683C4E810712D5400703D5706840F4C6
:100E8000E06070602078000703D5706840F460501F
:100E900070607068A16820F0F000084370602078EE
:100EA000C00727D06068012810D03168022810D010
:100EB000890700292FDA716821F00301014371606D
:100EC000FFF71AFF074641F288390CE031688903C1
:100ED000EFE78901EDE7FFF70FFFC11B494502D995
:100EE0000320BDE8F0877068616800F00C00B0EB8B
:100EF000810FF0D1D8F80010404601F00701A94257
:100F00000BD9016821F0070129430160006800F056
:100F10000700A84201D00120E3E72078400705D56B
:100F20007068E16820F4E060084370602078000792
:100F300006D57068216920F4605040EAC1007060F5
:100F400000F038F87168084AC1F30311515CC840D9
:100F50000649086006480068FFF7EEFE0020C0E77B
:100F600000200240001002401C4200081000002037
:100F7000080000200448054900684968044AC1F394
:100F80000221515CC8407047100000200010024050
:100F90002C4200080448054900684968044AC1F326
:100FA000C221515CC8407047100000200010024070
:100FB0002C42000812A085B00FC88DE80F0014A0C5
:100FC000144B006804905968134801F00C02042A7D
:100FD00010D0082A0ED1C1F38342C9031DF80200C4
:100FE0000AD5596804AAC1F34041515C0A4A5043EA
:100FF000B0FBF1F005B0704708494843FAE700003C
:1010000002030405060708090A0B0C0D0E0F101049
:10101000010200000010024000127A0000093D00A9
:101020002DE9F84F04006FD02078BE4DC00747D09F
:101030006868C0F38100012807D06868C0F38100A8
:10104000022809D16868C00306D52868800337D50F
:1010500060680028E7D033E06068B0F5803F0BD0CF
:1010600010B1B0F5A02F11D0286820F4803028608E
:10107000286820F4802002E0286840F4803028604E
:10108000606888B1FFF738FE064609E0286840F43A
:1010900080202860F0E7FFF72FFE801B642873D8BC
:1010A00028688003F7D50BE0FFF726FE064604E02C
:1010B000FFF722FE801B6428F1D828688003F7D44C
:1010C0002078DFF8648280074FF0010A4FF00009B2
:1010D00039D5686810F00C0F07D06868C0F381003C
:1010E000022809D16868C00306D42868800714D58F
:1010F0002069012808D110E02069B0B1C8F800A02B
:10110000FFF7FAFD064605E007E1FFF7F5FD801B56
:101110000228C4D828688007F7D52868616920F0BC
:10112000F80040EAC10028600DE0C8F80090FFF721
:10113000E3FD064604E0FFF7DFFD801B022823D80D
:1011400028688007F7D4207800072CD57748A16954
:10115000D9B1C0F800A0FFF7CFFD064604E0FFF7C5
:10116000CBFD801B02280FD8686A8007F7D570482E
:101170004FF4FA510068B0FBF1F0009000BF009806
:10118000411E0091FAD20EE07CE0C0F80090FFF71B
:10119000B3FD064604E0FFF7AFFD801B022871D8BF
:1011A000686A8007F7D4207840075BD5E869002794
:1011B000C00008D4E86940F08050E861E869012780
:1011C00000F0805000905B480168C90511D40168A7
:1011D000834641F480710160FFF78EFD064604E00E
:1011E000FFF78AFD801B64284CD8DBF80000C0059F
:1011F000F6D5E06801280AD008B1052813D0286A7E
:1012000020F001002862286A20F0040002E0286A29
:1012100040F001002862E06841F2883B88B1FFF7A6
:101220006BFD064609E0286A40F004002862EEE7FC
:10123000FFF762FD811B59455BD8286A8007F7D507
:101240000BE0FFF759FD064604E0FFF755FD811B53
:1012500059454ED8286A8007F7D41FB1E86920F0B5
:101260008050E861E069A8B36968C1F3810102298F
:1012700046D00228484606D0C8F86000FFF73CFD7B
:10128000044639E035E04746C8F86000FFF734FD12
:10129000064604E0FFF730FD801B022829D82868A5
:1012A0008001F7D4206AB0F5803F05D16868A16855
:1012B00020F4003008436860D4E9080108436968F5
:1012C00021F4741108436860C7F860A0FFF714FDAB
:1012D000044605E023E0FFF70FFD001B022808D8B5
:1012E00028688001F7D51AE0FFF706FD001B0228E9
:1012F00002D90320BDE8F88F28688001F4D40EE0FD
:101300000128F7D06868226A00F48031914204D144
:10131000616A00F47010884201D00120EAE70020E1
:10132000E8E7000000100240000042428004424210
:10133000100000200070004010B5401EB0F1807F0A
:1013400001D3012010BD4FF0E02460610F21601730
:1013500001F01CFD0020A06107202061002010BDCD
:101360007047704710B590F83C20012A22D0012226
:1013700080F83C20CA688C6822F4407222434C6892
:1013800022F4806222430C6822F4006222430C693A
:1013900022F4805222434C6922F400522243C9694C
:1013A000002322F480420A4301684A6480F83C30FA
:1013B000002010BD022010BD70B590F83C20012A1D
:1013C00026D0012580F83C50022280F83D2002689A
:1013D0005368946823F070060B68334353600D4BD9
:1013E00002689A4208D0B2F1804F05D00A4B9A4267
:1013F00002D00A4B9A4204D1496824F08003194371
:10140000916080F83D50002180F83C10084670BD86
:10141000022070BD002C0140000400400008004084
:1014200010B5040003D094F83D0010B107E001208E
:1014300010BD002084F83C00204600F01FF8022078
:1014400084F83D00211D206801F0A4FA012084F8F1
:10145000460084F83E0084F83F0084F8400084F899
:10146000410084F8420084F8430084F8440084F882
:10147000450084F83D00002010BD000008B500685C
:101480000B49884212D10B48C16941F00201C16188
:10149000C069002200F00200009001211D20FFF72A
:1014A0009BFCBDE808401D20FFF788BC08BD00007C
:1014B000000400400010024090F83D10012901D0C6
:1014C00001207047022180F83D100168CA6842F08F
:1014D0000102CA6000680B49884208D0B0F1804F11
:1014E00005D00949884202D00849884204D1816860
:1014F00001F00701062903D0016841F001010160F4
:1015000000207047002C014000040040000800400B
:1015100070B5044690F83C00012817D0012584F8E6
:101520003C50022084F83D002068826822F0770257
:1015300022F47F4282600868502830D00DDC2028D9
:101540004DD005DC98B310283BD148E0022070BD97
:10155000302844D0402834D139E0602828D0702881
:1015600006D0B0F5805F2CD0B0F5005F29D10AE03D
:10157000CB68D1E90121206801F04FFA2068816829
:1015800041F0770109E0CB68D1E90121206801F041
:1015900044FA2068816841F48041816011E0CA68A2
:1015A0004968206801F0F4FA5021206807E016E04D
:1015B000CA684968206801F0FCFA6021206801F0DF
:1015C00036FA84F83D50002084F83C0070BDCA68AB
:1015D0004968206801F0DCFA40212068EFE72268C2
:1015E00001461046EBE72DE9F0410D46040003D01B
:1015F00094F83D0018B108E00120BDE8F08100201A
:1016000084F83C00204600F041F8022084F83D00B8
:101610002068816844F2070291438160211D20689F
:1016200001F0B8F9206881688269066A2B68AF69A1
:101630000B4340F203318A4342EA0722A968EF696B
:1016400011434FF6FC429143EA6841EA07210A43FD
:1016500029692F6A090141EA073111436A686D69F6
:1016600026F0220646EA05152A4383602068816138
:1016700054F8460B0262012004F81F09E075207639
:10168000E0762077A0750020B7E7000000B585B0B0
:101690000021009101910291039101682148B1F16B
:1016A000804F22D0204A91421DD1C16941F00401EE
:1016B000C161C16901F004010491816941F008012F
:1016C00081618069694600F008000490C0200090A4
:1016D0001648FFF721FA002203211E20FFF77CFBAA
:1016E0001E20FFF76BFB05B000BDC16941F0010191
:1016F000C161C16901F001010491816941F00401F6
:1017000081618069694600F0040004900320009024
:101710000748FFF701FA002203211C20FFF75CFBBA
:101720001C20DEE70010024000080040000C0140D1
:101730000008014070B590F83E50044690F83F30E4
:1017400090F8422090F84300022621B104290BD0E2
:10175000012D16D10FE0012D13D1012A11D184F8EA
:101760003E6084F8426016E0012B0AD1012808D1BE
:1017700084F83F600DE0012B03D1012A01D101283B
:1017800001D0012070BD84F83E6084F83F6084F889
:10179000426084F8436091B1042904D00122002101
:1017A000206801F02DF901220421206801F028F9B8
:1017B0002068016841F001010160002070BD012234
:1017C00000212068F2E7704770B50446006801699F
:1017D0004FF00005C943890715D4C168C94389077B
:1017E00011D4E91E016101202077206880698007FB
:1017F000204602D0FFF7E7FF04E000F0BFF82046E4
:1018000000F062F9257720680169C943490717D4B8
:10181000C168C943490713D46FF004010161022074
:1018200020772068806910F4407F204602D0FFF7BF
:10183000CAFF04E000F0A2F8204600F045F9257741
:1018400020680169C943090716D4C168C94309075B
:1018500012D46FF008010161042020772068C0696C
:101860008007204602D0FFF7AEFF04E000F086F8C4
:10187000204600F029F9257720680169C943C90687
:1018800017D4C168C943C90613D46FF010010161B0
:10189000082020772068C06910F4407F204602D0DD
:1018A000FFF791FF04E000F069F8204600F00CF922
:1018B000257720680169C943C90708D1C168C943B0
:1018C000C90704D1891E0161204600F087F920680C
:1018D0000169C943090609D4C168C943090605D489
:1018E0006FF0800101612046FFF73AFD2068016931
:1018F000C943490609D4C168C943490605D46FF0F4
:1019000040010161204600F081FA20680169C94365
:1019100089060BD4C168C943890607D46FF020013A
:1019200001612046BDE87040FFF71BBD70BD00009F
:1019300000B585B0002100910191029103910068EA
:101940000B49884212D10B48816941F00401816141
:101950008069694600F0040004904FF41060009024
:101960000220019003900448FFF7D6F805B000BDAF
:10197000002C01400010024000080140704770B583
:10198000044690F83C000D4601280AD0012084F856
:101990003C0042B1042A18D0082A2AD00C2A4DD182
:1019A00039E0022070BD206801F04AF820688169A2
:1019B00041F0080181612068816921F004018161A1
:1019C000206881692A69114311E0206801F064F8F8
:1019D0002068816941F4006181612068816921F496
:1019E00080618161206881692A6941EA02218161FF
:1019F00024E0206801F07EF82068C16941F0080108
:101A0000C1612068C16921F00401C1612068C16918
:101A10002A69114311E0206801F098F82068C16933
:101A200041F40061C1612068C16921F48061C16134
:101A30002068C1692A6941EA0221C161002084F855
:101A40003C0070BD10B5040003D094F83D0010B107
:101A500007E0012010BD002084F83C00204600F083
:101A60001FF8022084F83D00211D206800F092FF3D
:101A7000012084F8460084F83E0084F83F0084F892
:101A8000400084F8410084F8420084F8430084F860
:101A9000440084F8450084F83D00002010BD00009B
:101AA00008B500680649884208D10648816941F4B2
:101AB00000618161806900F40060009008BD000051
:101AC000002C0140001002407047000010B5044691
:101AD00049B104290AD008290BD094F84100012803
:101AE0000AD0012010BD94F83E00F8E794F83F00BA
:101AF000F5E794F84000F2E7022041B3042929D029
:101B000008292AD084F841000122206800F078FFDB
:101B100013492068884203D1426C42F40042426477
:101B20002068884208D0B0F1804F05D00D49884226
:101B300002D00D49884204D1816801F007010629CD
:101B400003D0016841F001010160002010BD84F85C
:101B50003E00D9E784F83F00D6E784F84000D3E799
:101B6000002C0140000400400008004030B504464D
:101B70000D460068002200F043FF174A41F21111A0
:101B800020688B10904209D1026A0A4206D1026A8B
:101B90001A4203D1426C22F4004242642068026A75
:101BA0000A4206D1016A194203D1016821F00101FC
:101BB000016001203DB1042D08D0082D09D084F822
:101BC0004100002030BD84F83E00FAE784F83F0071
:101BD000F7E784F84000F4E7002C01402DE9F84FC6
:101BE0007D4988427ED17D4802F0BEF97C4C6081FF
:101BF0007C4802F0B9F9404201B2A181B4F90A204F
:101C0000206910442061626955186561FEF728FD5E
:101C1000DFF8D4B1754F5E465A463B46FEF7A3FC4B
:101C2000DFF8CC81DFF8CC9142464B46FEF729FC29
:101C3000FEF78AFDA06100902846FEF711FD3246AE
:101C40003B46FEF790FC42464B46FEF71AFCFEF779
:101C50007BFDE0612079684E684F00254FF0010A56
:101C6000012842D1216A0098FEF78AFD08D125712A
:101C700084F805A0257002F07DF902F093F901E0E7
:101C8000657125703078012802D0387801282CD170
:101C900001F06CFF01F08CFEFEF7F3FCA06438B994
:101CA000D4E90412114401EBD17149102161616141
:101CB000FEF7C8FC8046E0644146606AFEF766FABB
:101CC000FEF7DFFC20644146E06AFEF7B1FAFEF75A
:101CD000D8FC434960644431081F01F0CFFDD4E9CA
:101CE000100100E075E001F0A5FEA079012835D1D2
:101CF0003078012802D0387801282FD101F036FF42
:101D0000606AFEF7BEFC2064E06AFEF7BAFC344964
:101D100060644431081F01F0B1FDD4E9100101F005
:101D200089FEA069FEF7E5FC80468946206DFEF736
:101D3000E0FC5A46324BFEF79EFB42464B46FEF70E
:101D4000EBFC04D3216DA069FEF724FD06D202F05E
:101D500011F902F027F9A57184F805A0207A01286D
:101D600037D125716571257002F010F902F026F95E
:101D70003078244DDFF890804FF08046012802D063
:101D80003878012825D102F017FAA06BFEF779FC0C
:101D90002064E06BFEF775FC114960644431081F54
:101DA00001F06CFDD4E9100101F044FE31462868D1
:101DB000FEF7ECF94446D8F80010FEF7EBFC08D229
:101DC00031462868FEF734FA2168BDE8F84FFEF77F
:101DD000D7BCBDE8F88F000044010020FC000020C3
:101DE000180000208C0100209A99999999498D40FA
:101DF000083D9B559F6B34401400002015000020C7
:101E00009999B93F5407002070000020704770472F
:101E100070B5026804461068D168536910F00F0F5E
:101E200052D003F0010501F490762E435FD0C20733
:101E300005D0CA0503D5E26B42F00102E263420716
:101E400005D5DA0703D0E26B42F00202E2638207B3
:101E500005D5DA0703D0E26B42F00402E263020721
:101E600007D501F020022A4303D0E26B42F00802BA
:101E7000E263E26B002A33D0800604D5880602D5DF
:101E8000204600F0BEFE20684069E16BC0F3801080
:101E9000090700D428B3204600F0A5FE2068416958
:101EA00049061AD5416921F040014161606BA0B13A
:101EB0002D494163606BFEF7D1FD002810D0606BA7
:101EC000416BBDE870400847830610D58B060ED5E0
:101ED0002046BDE8704000F094BE2046FFF797FF13
:101EE00070BD2046FFF793FF0020E06370BD03063E
:101EF0002BD50B0629D594F839002128F6D1A068F6
:101F0000B0F5805F01D12069B0B1206A411C216227
:101F1000216800784860E08C401E0004000CE084DA
:101F2000E4D12068C16821F08001C1602068C168E7
:101F300041F04001C16070BD206A0088C0F3080014
:101F40005060206A801C2062E5E74006F3D5480611
:101F5000F1D5D168204621F04001D160202184F8DC
:101F6000391000F0E3F870BDD72B000870B50400FD
:101F700004D094F83900002510B106E0012070BDAE
:101F800084F83850204600F023F8242084F83900E3
:101F90002068C16821F40051C160204600F078FE3D
:101FA0002068016921F4904101612068416921F0B4
:101FB0002A0141612068C16841F40051C160E563B4
:101FC000202084F8390084F83A00002070BD000019
:101FD00070B586B0002400940194029403940068C4
:101FE0002D4E2E49022203232D4DB04226D1886961
:101FF00040F480408861886900F4804004908869DA
:1020000040F0040088618869039300F004000490A4
:102010004815CDE9000269462846FEF77DFD2815E2
:10202000CDE90004694628460294FEF775FD0022BA
:1020300002212520FEF7D0FE252028E0194EB042CF
:1020400027D1C86940F40030C861C86900F4003085
:102050000490886940F0040088618869694600F04E
:10206000040004900420CDE9000203932846FEF703
:1020700053FD0820CDE90004694628460294FEF786
:102080004BFD002201212620FEF7A6FE2620FEF7AA
:1020900095FE06B070BD00000038014000100240FF
:1020A000000801400044004090F83A30202B22D133
:1020B000F9B1F2B190F83830012B1CD081628285E1
:1020C000C2850021C163222280F83A2080F83810AE
:1020D0000168CA6842F48072CA6001684A6942F0C5
:1020E00001024A610068C16841F02001C16000201E
:1020F00070470120704702207047000010B500684B
:10210000074988420AD10748007801F03BFBBDE847
:102110001040012203490448FFF7C6BF10BD00006C
:102120000044004001000020140200207047FEE738
:1021300070B501220E4D540221462846FEF7D7FD08
:102140000122160231462846FEF7D1FD00F048F87C
:10215000002221462846FEF7CAFD00F041F8002281
:1021600031462846FEF7C3FDBDE8704000F038B8A0
:10217000000C014070B50B4D4FF400740022214655
:102180002846FEF7B4FD012211022846FEF7AFFDF6
:1021900000F026F821462846BDE870400122FEF7EF
:1021A000A6BD0000000C014070B50C4C012251028C
:1021B0002046FEF79CFD00F013F801221502294687
:1021C0002046FEF794FD00F00BF800222946204639
:1021D000FEF78DFDBDE8704000F002B8000C014034
:1021E0000320401EC0B2FCD2704700002DE9F0432E
:1021F00085B00024474800940194029403948169B7
:1022000041F010018161816901F01001049181693F
:1022100041F020018161816901F02001049181690F
:1022200041F004018161816901F004010491816937
:1022300041F0080181618069012200F00800364FF9
:102240005503049029463846FEF751FDDFF8CC804F
:10225000012280214046FEF74AFDDFF8C4900022AB
:102260004FF473414846FEF742FD009502260125D2
:102270000396CDE9015469463846FEF74DFC4FF40C
:102280004040CDE90004694638460294FEF744FC1C
:102290007020CDE90004694640460294FEF73CFCFC
:1022A0008020CDE90005CDE9024669464046FEF7AB
:1022B00033FC0327009769464846CDE90145FEF700
:1022C0002BFC4FF47040CDE90005CDE9024669468C
:1022D0004846FEF721FC3820CDE90004694648460F
:1022E0000294FEF719FC28021125CDE90005CDE97D
:1022F000024769464846FEF70FFC3002CDE900056B
:10230000CDE9024669464846FEF706FC05B0BDE841
:10231000F08300000010024000100140000801405E
:10232000000C014010B592B000240F941C216846A7
:102330001094FDF720FF202107A8FDF71CFF24487B
:102340002249C0E9001441F61F41C0E90241802141
:102350000461C0E90541FFF775FB08B1FEF77BFB9F
:102360000F940FA91A481094FFF726F808B1FEF74A
:1023700072FB6020CDE90004029403940494059458
:102380000022694612480694FFF7F9FA08B1FEF7F1
:1023900062FB0C2269460E48FFF7F1FA08B1FEF71E
:1023A0005AFB0794089409944FF400500A94CDE91D
:1023B0000B4007A906480E94FEF7D4FF08B1FEF7BC
:1023C0004AFB0348FFF7B4FA12B010BD002C0140DD
:1023D000B400002010B58CB024216846FDF7CBFE78
:1023E0000024154809944FF080410A94C0E9001474
:1023F0004FF6FF71C0E90241046184610320CDE919
:1024000000040120CDE902040494CDE905400794BD
:10241000694609480894FFF7E6F808B1FEF71BFB88
:10242000099409A904480A94FEF7C6FF002801D0C0
:10243000FEF711FB0CB010BDFC00002010B586B0FB
:1024400000241748009401940294039404941349BF
:102450000594016041F61F41C0E90114C721C0E99C
:1024600003148461FEF7DCFF08B1FEF7F4FA4FF4C1
:102470008050009069460A48FFF74AF808B1FEF715
:10248000EAFA049404A906480594FEF795FF00288B
:1024900001D0FEF7E0FA06B010BD000000040040D5
:1024A0004401002010B58CB024216846FDF763FE7E
:1024B00000241648099414490A94C0E900144FF600
:1024C000FF71C0E90241046184610320CDE9000489
:1024D0000120CDE902040494CDE905400794694642
:1024E0000A480894FFF77FF808B1FEF7B4FA099498
:1024F00009A906480A94FEF75FFF002801D0FEF7FD
:10250000AAFA0CB010BD0000000800408C010020A9
:102510000C4810B50A4901604FF4E13141600021D7
:1025200081600C22C160C0E904128161C161FFF7C2
:102530001DFD002803D0BDE81040FEF78CBA10BD89
:1025400000380140D40100200C4810B50A49016050
:102550004FF416514160002181600C22C160C0E936
:1025600004128161C161FFF701FD002803D0BDE8BD
:102570001040FEF770BA10BD004400401402002065
:10258000FEE7FEE730B40021084B0A46002003EBCB
:10259000C004401CC0B262548028F8D3491CC9B2A0
:1025A0000829F3D330BC00F0ABB80000540200207F
:1025B00028B1012806D10021A72000F05FB9002131
:1025C000A620FAE7704710B558B1012810D10021B4
:1025D000C02000F053F90021A020BDE8104000F019
:1025E0004DB90021C82000F049F90021A120F4E7ED
:1025F00010BD000030B5CC0801F0070301259D4057
:10260000EBB2064D05EBC005C808285C0AB11843BB
:1026100002E063EA0000C043285530BD54020020A8
:1026200010B5C820FEF766FA0021AE2000F026F9AA
:102630000021084600F022F90021102000F01EF9C8
:102640000021402000F01AF90021812000F016F945
:102650000021CF2000F012F90021A12000F00EF996
:102660000021C82000F00AF90021A62000F006F998
:102670000021A82000F002F900213F2000F0FEF820
:102680000021D32000F0FAF80021084600F0F6F807
:102690000021D52000F0F2F80021802000F0EEF8B3
:1026A0000021D92000F0EAF80021F12000F0E6F83E
:1026B0000021DA2000F0E2F80021122000F0DEF81C
:1026C0000021DB2000F0DAF80021302000F0D6F8FD
:1026D0000021202000F0D2F80021022000F0CEF8E6
:1026E00000218D2000F0CAF80021142000F0C6F867
:1026F000FFF748FF0021BDE81040AF2000F0BEB852
:1027000070B5174E002505F1B000C0B2002100F0F1
:10271000B5F80021084600F0B1F80021102000F0C3
:10272000ADF8FFF705FD782000F0C6F8FFF73CFD97
:10273000402000F0C1F8FFF737FD002406EBC4008D
:10274000405D00F0B9F8FFF72FFD641CE4B2802C67
:10275000F4D3FFF70FFD6D1CEDB2082DD3D370BD80
:10276000540200202DE9FC4F1D46884681468B46C9
:102770000090082B0DD0680700D0012000EBD50099
:1027800069084843C0B2203A02F0FF0A00260190CF
:1027900046E00620F7E7082D10D00C2D14D0102DA0
:1027A00016D0182D3FD122490AEBCA0001EB800058
:1027B0000027845DE0070FD00B9A10E01D490AEB5B
:1027C0004A0001EB4000F3E70AEB4A001A49EDE743
:1027D0001A4901EB0A10EBE70B9830B3002241468F
:1027E0004846FFF707FF7F1C640808F10100FFB2AD
:1027F00000F0FF08082FDDD309F1010000F0FF0908
:10280000082D0AD00099A9EB0100B0EB550F04D1B7
:102810000BF10800894600F0FF0B761CD846F6B293
:1028200001988642B7D3BDE8FC8F0122D7E70000AC
:10283000C04E0008344200085C440008D04800083C
:102840002DE9F8411E46154688460446079F0BE0D1
:102850003346414620460097FFF784FF082E0AD0F2
:1028600004EB5600C4B26D1C2A78A2F120005E2849
:10287000EED9BDE8F881A41DE4B2F4E770B50C46CA
:102880000546FFF755FC782000F016F8FFF78CFCA2
:102890000CB1402000E0002000F00EF8FFF784FCAF
:1028A000284600F009F8FFF77FFCBDE87040FFF70D
:1028B00061BC7047704700002DE9F041124F0024C1
:1028C00005464FF40078BE15280601D5012200E028
:1028D000002241463846FEF70AFAFFF781FC012242
:1028E00031463846FEF703FAFFF77AFC00223146FC
:1028F0003846FEF7FCF96806641C050EE4B2082CA5
:10290000E2D3BDE8F0810000000C0140FEF7FAB907
:1029100030B58FB028216846FDF72DFC14210AA898
:10292000FDF729FC0120010400248DE81300049028
:102930004FF4E010CDE90810022507956846FEF730
:102940006FFB08B172B6FEE70F20CDE90A054FF420
:102950008060CDE90C4002210AA80E94FEF76EFAC1
:10296000002801D072B6FEE70FB030BD70470000FE
:102970000148FEF729BF0000FC0000200148FEF7D7
:1029800023BF0000440100200148FEF71DBF0000E6
:102990008C010020F0B50268164C174D174E4FF011
:1029A0008047A04205D0B84203D0A84201D0B0422F
:1029B00003D122F070034A681A43A04205D0B842FE
:1029C00003D0A84201D0B04203D122F44073CA68B8
:1029D0001A434B6922F080021A4302608A68C2627D
:1029E0000A688262A04201D1096901630121416143
:1029F000F0BD0000002C0140000400400008004031
:102A000010B501F01F010123046A8B409C4304624E
:102A1000036A8A401343036210BD10B5846842EA1A
:102A2000032224F47F440A432243826010BD82685B
:102A300022F070020A4342F00701816070470000F3
:102A400030B5026A22F001020262036A42688469B8
:102A500024F073050C682C4323F002058B682B438C
:102A60000C4DA84206D123F00805CB6843EA0503C4
:102A700023F0040307D14D6922F4407245EA0205B0
:102A80008A6942EA050242608461496841630362DF
:102A900030BD0000002C014030B5026A22F0100267
:102AA0000262026A436884690D6824F4E64444EAD9
:102AB00005248D6822F0200242EA05120C4DA8423E
:102AC00006D1CD6822F0800242EA051222F04002CF
:102AD00007D14D6923F4406343EA85038D6943EAD6
:102AE00085034360846149688163026230BD0000F0
:102AF000002C014030B5026A22F480720262036A3F
:102B00004268C46923F4007324F073050C682C43F5
:102B10008D6843EA05230C4DA84206D1CD6823F405
:102B2000006343EA052323F4806307D14D6922F44F
:102B3000405242EA05128D6942EA05124260C461C0
:102B40004968C163036230BD002C014030B5026AA0
:102B500022F480520262036A4268C4690D6824F458
:102B6000E64444EA05248D6823F4005343EA053320
:102B7000064DA84204D14D6922F4804242EA8512F2
:102B80004260C46149680164036230BD002C0140A9
:102B900010B5046A036A23F001030362836923F01A
:102BA000F00343EA021324F00A020A43836102623B
:102BB00010BD10B5036A23F0100303628469036A31
:102BC00024F4704444EA023223F0A00343EA0111E2
:102BD0008261016210BD10B5406A0021C185C184C7
:102BE000FFF715F910BD0168CA6822F49072CA6037
:102BF00001684A6922F001024A61202180F83A10F6
:102C0000704710B590F83A10222901D0022010BD6B
:102C100081684FF48053994201D1026922B1826ADE
:102C200099421BD049B10AE00268816A5268C2F336
:102C300008020A80816A891C08E0016971B1016893
:102C4000496801F07F011170816A491C8162C18D60
:102C5000491E0904090CC18503D016E001684968C2
:102C6000F1E70168CA6822F02002CA600168CA68F8
:102C700022F48072CA6001684A6922F001024A6146
:102C8000202180F83A10FFF739FA002010BD00002B
:102C900070B5044600680169E26821F440511143AF
:102CA0000161A16820690143606901432068C2682D
:102CB00041F20C639A430A43C26020684169A269E9
:102CC00021F44071114341611E492068884202D1BC
:102CD000FEF760F901E0FEF74DF900EBC00101EBF2
:102CE0000011606864228000B1FBF0F3B3FBF2F3E3
:102CF0006FF018067343B1FBF0F5B1FBF0F605EB8E
:102D00008305322303EB0515B5FBF2F5B6FBF2F6AE
:102D100005F0F00505EB0615B1FBF0F6B1FBF0F0A0
:102D2000B0FBF2F06FF01801484306EB800003EBB4
:102D30000010B0FBF2F0216800F00F00284488601A
:102D400070BD0000003801400148FFF761B8000085
:102D5000D40100200148FFF75BB8000014020020F6
:102D6000FEE700000FB4084B10B504A902AA0398AF
:102D700000F0EEF8044602A9002000F080FC204696
:102D800010BC5DF814FB00007F3600080907090E2F
:102D9000002804DB00F1E02080F80014704700F008
:102DA0000F0000F1E02080F8141D704702E008C811
:102DB000121F08C1002AFAD170477047002001E0B5
:102DC00001C1121F002AFBD1704700002DE9FF5FEF
:102DD00082B00021DDE90430020DDDF840B003438C
:102DE00018D044F61050A2F2FF3242431514119845
:102DF00001281FD0A5EB0B00401C5FEA000A4FF032
:102E000000064E4FDFF83891B046504615D5CAF14E
:102E1000000413E0119801244AA3012801D16FEAAC
:102E20000B010298119AC0E90031C0E9024206B0D4
:102E3000BDE8F09FCBF10000DFE704460021404AE7
:102E4000491842EB0450CDE9001012E0E00707D02A
:102E500032463B4640464946FDF713FB80468946CD
:102E600032463B4610461946FDF70BFB06460F4619
:102E70006410002CEAD1DDE90401DDE90023BAF198
:102E8000000F06DAFDF7FDFA42464B46FDF7F9FA68
:102E900005E0FDF768FB42464B46FDF764FB044640
:102EA0000E460022284BFDF793FD03D84FF0FF306C
:102EB000014607E00022254B20463146FDF73AFA4D
:102EC000FDF76EFD102409E0002C0ADB0A22002326
:102ED000FDF780FC039B30321A55641E50EA010254
:102EE000F2D1641C039AC4F111031444119A012A0B
:102EF00003D0012208430DD10AE0084304D000208A
:102F00004FF0110B119072E7A3EB0B056D1E0DE056
:102F10005B4504DD4FF0000205F1010504E003DA32
:102F20004FF00002A5F10105002AECD0029811999A
:102F3000C0E90231C0E9004579E700000000144013
:102F40000000F03F300000000000F0430000E03FD0
:102F50002DE9FF4F95B09B468946064600250FE2B6
:102F6000252877D100242746F84A0121059400E05E
:102F7000044316F8013F203B01FA03F01042F7D159
:102F800030782A2811D06FF02F033078A0F130026A
:102F9000092A16D8059A44F0020402EB820203EBD8
:102FA00042021044761C0590EFE759F8042B059275
:102FB000002A03DA504244F40054059044F002041D
:102FC000761C30782E2816D116F8010F44F0040430
:102FD0002A280DD06FF02F023078A0F13003092B92
:102FE00009D807EB870302EB4303C718761CF3E706
:102FF00059F8047B761C30786C280FD006DC4C28FE
:1030000017D068280DD06A2814D104E0742810D095
:103010007A280FD10DE044F400140AE044F480143F
:1030200001E044F440147278824202D104F5801425
:10303000761C761C307866280BD013DC582877D0A5
:1030400009DC002875D04528F6D04628F4D047285A
:103050001AD19DE118E0632835D0642879D065281D
:1030600012D195E1702873D008DC6728F1D0692867
:103070006FD06E280DD06F2806D1B5E073282CD004
:10308000752875D0782874D05A46179990476D1CCA
:1030900075E1C4F30250022809D003280DD0D9F8F5
:1030A000001004280DD00D6009F1040967E1D9F87A
:1030B0000010EA17C1E90052F6E7D9F800100D80B8
:1030C000F2E70D70F0E719F8041B8DF800100020EE
:1030D0008DF80100EA46012003E059F804AB4FF0F7
:1030E000FF3061074FF0000102D40DE008F101014B
:1030F0008846B9420FDA8045F8DB1AF80810002933
:10310000F4D108E008F1010188468142FADB1AF89F
:1031100008100029F6D105985B46A0EB0807214668
:103120003846179A00F094FA284400EB080507E0A7
:103130004DE029E10DE01AF8010B5A461799904726
:10314000B8F10108F7D25B4621463846179A13E1D9
:1031500042E00A220092C4F302524FF0000A022A0F
:1031600008D059F804CB032A4FEAEC710AD00DE0DD
:1031700029E02AE009F1070121F00702F2E802C183
:10318000914609E00FFA8CFC4FEAEC71042A03D156
:103190004FFA8CFC4FEAEC71002907DA0A4600214D
:1031A000DCF1000C61EB02012D2202E0220504D5C6
:1031B0002B228DF80420012203E0E20701D0202217
:1031C000F7E7904659E00A2102E010220DE01021B5
:1031D0004FF0000A00910BE010224FF0000A44F07B
:1031E00004040827009203E008224FF0000A00922E
:1031F000C4F30252022A05D059F804CB0021032A55
:1032000008D009E009F1070121F00702F2E802C144
:10321000914605E01FFA8CFC042A01D10CF0FF0C4A
:103220004FF00008220728D5702806D0009B83F0B5
:10323000100353EA0A0305D00EE040228DF8042063
:10324000012208E05CEA010206D030228DF8042059
:103250008DF8050002229046009B83F0080353EA94
:103260000A030AD15CEA010201D1620705D53022C6
:103270008DF804204FF001087F1E582804D034A098
:1032800003900EA802900DE036A0F9E75346604681
:10329000009AFDF79FFA84460398825C0298401ECC
:1032A000029002705CEA0100F0D1029806A9081AA7
:1032B00000F1200A600702D524F4803400E00127E1
:1032C000574502DDA7EB0A0000E0002000EB0A01F1
:1032D000009005984144401A0590E00306D45B46EF
:1032E0002146179A059800F0B3F90544002706E037
:1032F00001A85A46C05D179990476D1C7F1C474531
:10330000F6DBE0030CD55B462146179A059800F0E2
:103310009FF9054404E030205A46179990476D1CE8
:103320000099481E00900029F5DC08E002980299F7
:103330005A460078491C0291179990476D1CBAF1C2
:103340000001AAF1010AF1DC65E100000928010091
:10335000303132333435363738396162636465660B
:1033600000000000303132333435363738394142CD
:10337000434445460000000000F058F90544761C1F
:10338000307800287FF4ECAD19B02846BDE8F08F06
:10339000620700D4062709F1070222F0070CFCE8B7
:1033A0000223E14603F000485FEA080C02D00FF266
:1033B000702C0DE05FEA045C02D50FF2682C07E088
:1033C0005FEAC47C02D00FF2602C01E0AFF2700C17
:1033D0004FF0FF3823F00043CDF850C065280CD0E3
:1033E00006DC452809D046281DD047283DD13DE0C0
:1033F000662818D067287ED138E00021112F01DB24
:10340000112000E0781CCDE9000106A90EA8FFF705
:10341000DDFCDDE90F010E9A03910021009207F116
:10342000010A04914DE04FF000400097CDE90110F2
:1034300006A90EA8FFF7CAFCDDE90F0203920E9B56
:1034400011990022DDF80CA00093049211B9791CA7
:1034500000EB010AB7EB0A0004D4C0F1FF3007F11A
:10346000010A0490AAEB0700019044E0012F00DA62
:1034700001270021112F01DD112000E03846CDE9A0
:10348000000106A90EA8FFF7A1FCDDE90F010E9AC5
:103490000391002104910092BA4621070CD40399AC
:1034A000514500DA8A46BAF1010F05DD009AAAF10A
:1034B0000101515C302908D0B84202DA10F1040F42
:1034C00006DA0121CDE9011015E0AAF10101E9E7D1
:1034D000002805DC049901440491AAEB000102E0F4
:1034E000411C514500DD8A460499401A401C019058
:1034F0004FF000400290200704D40198504501DBB2
:10350000CDF8048000208DF84F0002980DF14F0790
:10351000B0F1004F25D02B200E9002984FF00208FA
:1035200000280CDA404202902D200E9007E00A217C
:103530000298FDF739F93031029007F8011DB8F112
:103540000001A8F10108F2DC02980028EFD1791EF1
:103550000E980870307800F0200040F0450007F821
:10356000020D12A8C01B00F107081498007800B1E2
:10357000012000EB0A01019801EBE071059841443C
:10358000401A401E0590E00306D45B462146179A78
:10359000059800F05DF805441498007818B15A4673
:1035A000179990476D1CE00324D55B462146179A76
:1035B000059800F04DF805441CE00498002807DB4E
:1035C000DDE90301884203DD0098405C179901E0C2
:1035D000179930205A469047049805F10105401C80
:1035E00004900198401E019004D12E205A4617994C
:1035F00090476D1CBAF10001AAF1010ADDDC05E07B
:1036000017F8010B5A46179990476D1CB8F1000145
:10361000A8F10108F4DC5B462146179A0598ABE651
:103620002D0000002B000000200000002DE9F041DB
:10363000044600251E461746880404D405E0394692
:103640002020B0476D1C641EF9D52846BDE8F081E6
:103650002DE9F041044600251E469046C80301D5D9
:10366000302700E02027880404D505E0414638468D
:10367000B0476D1C641EF9D52846BDE8F0810A6884
:10368000531C0B601070704770B5164C0546012036
:10369000207100216171A171E171A161E16121617C
:1036A00028466161FCF7CEFF20622846FCF7D8FF70
:1036B0000D4A0E4BFCF757FF0D4A0E4BFCF7E1FE8F
:1036C000FDF742F8044601460B4800F083FC214612
:1036D0000A4800F07FFC00F059FCBDE8704000F0A3
:1036E0006DBC000018000020083D9B559F6B3440C6
:1036F0009A99999999498D40140700203407002020
:103700000200164810B54FF00001017141714FF0F1
:1037100001038371C1718161C1610161416110491E
:1037200001651048104907D0012A02D0022A02D0B0
:1037300005E00E4900E00E49FDF706F8044684F066
:1037400000410C4800F046FC21460B4800F042FCCA
:1037500000F01CFCBDE8104000F030BC1800002058
:10376000FAED2F4133E83C734F897F404F897FC08A
:103770004F898FC01407002034070020002800DC88
:103780004042704710B51C4C002123781B4A2BB3D4
:103790002378012B28D02378022B2CD16378D054A6
:1037A0005B1CD8B260700B2825D10020135C401C34
:1037B0001944C0B2C9B20A28F8D3907A88420BD112
:1037C000D08800B2FCF73EFF6FF00E01FCF7A6FDBB
:1037D0000B49FCF733FD606000200AE055280AD150
:1037E00061785054012004E0532804D1617850548A
:1037F00002202070607010BD6C0000209407002033
:10380000000034432DE9F04100241A4D1A4E0127DF
:1038100008B12F7001E0287848B101213046FDF74A
:1038200061FA58B102213046FDF75CFA30B101214E
:103830003046FDF757FA012812D018E00A20FDF7AC
:1038400059F90020287001213046FDF74BFA00B9E4
:10385000012402213046FDF745FA40B9022406E072
:1038600002213046FDF73EFA012800D12F70204694
:10387000BDE8F08174000020000C014010B541F655
:10388000583302685C429A4201DD036002E0A242C2
:1038900000DA04600868984201DD0B6010BDA042A8
:1038A000FCDA0C6010BD00002DE9F04391B020223D
:1038B0003A4908A8FCF746FC394C00263546102149
:1038C0002046FDF70FFA012800D0002000902021AB
:1038D0002046FDF707FA012800D000200190402182
:1038E0002046FDF7FFF9012800D000202D4F02905F
:1038F0004FF400413846FDF7F5F9012800D00020CB
:10390000294C039020212046FDF7ECF9012800D036
:103910000020049010212046FDF7E4F9012800D092
:103920000020059008212046FDF7DCF9012800D091
:10393000002006904FF480413846FDF7D3F9012866
:1039400000D000200024E8460DF12009079058F827
:103950002400FCF777FE074659F82410FCF76EFCAC
:103960003146FCF713FC064638462946FCF70EFCA8
:10397000641C0546082CEADB15F0FF400BD02946F5
:103980003046FCF78DFC0949FCF758FC11B0BDE846
:10399000F043FCF776BE11B0BDE8F0834460000848
:1039A0000008014000100140000C014000007A4472
:1039B00010B5FFF779FFBDE810404000AFF300807D
:1039C0002DE9F047FCF73EFE80460321FCF7A6FCFC
:1039D000134C074640462168FCF7D8FB05461149C1
:1039E0002060FCF72BFC814640466168FCF720FC18
:1039F0000D49FCF723FC064649463846FCF7C6FB52
:103A00003146FCF7C3FB01460848C4F804808542F0
:103A100002DC0748854200D920600846BDE8F087EF
:103A2000780000208FC2F53C9A99193E00409C45D1
:103A300000409CC52DE9F0410E461B4C051E4FF47D
:103A400000514FF4805705DD00222046FDF74FF965
:103A5000012204E001222046FDF749F900223946FF
:103A60002046FDF744F92846FFF788FE0F4D2968E8
:103A700008644FF480414F00002E05DD00222046EF
:103A8000FDF735F9012204E001222046FDF72FF968
:103A9000002239462046FDF72AF93046FFF76EFE30
:103AA00029684863BDE8F081000C0140B4000020A3
:103AB000084810B50069FCF7C5FD0146064800F04E
:103AC0002BF80649884202DC0549884200D908469D
:103AD00010BD000018000020140700200000C8429C
:103AE0000000C8C2084810B54069FCF7ABFD0146AC
:103AF000064800F011F80649884202DC0549884270
:103B000000D9084610BD000018000020340700202E
:103B10000000C8420000C8C22DE9F0410446006818
:103B2000FCF786FB0546A0602946E069FCF72EFB02
:103B3000E06107462846E168FCF77AFBA169FCF7DB
:103B40007DFB064639466069FCF778FB0746294647
:103B50002069FCF773FB3946FCF718FB3146FCF78C
:103B600015FBE5606060BDE8F0810000134810B50A
:103B70000078012803D01248007801281CD1114C8C
:103B80006078401CC0B26070022807D300206070CB
:103B9000FFF78EFFA062FFF7A5FF20630A48A16A26
:103BA00000F018FA0948216B00F014FA00F014FA3A
:103BB000606200F037FAE06210BD000014000020DF
:103BC0001500002018000020D4060020F406002074
:103BD00008B5FDF79FF8FEF79BFEFEF707FBFEF723
:103BE000A1FBFEF75FFCFEF729FCFEF791FCFEF758
:103BF000ABFCFEF7EFFB3C215B48FDF79BFD3C2156
:103C00005A48FDF797FD5848FDF756FC5748FDF711
:103C100053FC00F0BBF900F0D1F90C215448FDF73A
:103C200055FF00215248FDF751FF5248FDF744FC73
:103C300000F04EF950480068C16841F02001C160B1
:103C400001224E494E48FEF72FFAFEF7E9FC00200C
:103C5000FEF7AEFC0020FEF7B6FCDFF82881012657
:103C6000002488F800604849484800F0B3F942F25F
:103C70001070FCF7D9FE464DDFF818914FF47A7AB0
:103C80004FF4FA7B4FF4B477287840B101280AD07A
:103C900002280BD003281ED0042831D050E000F0B9
:103CA00085F828704CE03C48067049E00020FFF79A
:103CB000A9FD20B3012802D0022841D104E05046DA
:103CC000FCF718FF782003E05046FCF713FF3C2078
:103CD000FFF7DAFC34E00020FFF794FD78B101280B
:103CE00002D002282CD104E05846FCF703FF002044
:103CF00003E05846FCF7FEFE0220FFF701FD1FE03F
:103D000088F800600020FFF77DFDC8B1012802D0CF
:103D1000022815D106E05846FCF7ECFE5A3405E0BF
:103D2000002406E05846FCF7E5FEB434A4B2BC42D9
:103D3000F6D82046FCF78FFC0146144800F04AF9FB
:103D4000D9F80000FCF7D5FC02460B4613A1164833
:103D5000FFF708F81023144A202100200096FEF7F0
:103D60006FFDFEF7CDFC8FE7FC0000208C010020EA
:103D7000B400002044010020D401002001000020F4
:103D800014020020200000200000324354070020CD
:103D900000000020700000201C0000205961773ACC
:103DA00025362E32660000008000002038B5002540
:103DB00001240020FFF726FD50B1012802D002287F
:103DC00006D11AE005206D1CB5FBF0F100FB115582
:103DD0002A4623A12548FEF7C5FF1023234A0021C8
:103DE00018460094FEF72CFDFEF78AFC052D17D22D
:103DF000DFE805F0090D2A2E32004FF4FA60FCF7D7
:103E000079FE284638BD102319A2009402E0102341
:103E10001BA2009410210846FEF712FDFEF770FC6D
:103E20001B480068FCF765FC02460B4619A10F48C9
:103E3000FEF798FF10230D4A202100200094FEF782
:103E4000FFFCFEF75DFCB4E7102315A20094E1E748
:103E5000102317A20094DDE7102319A20094D9E7DC
:103E6000675F6D6F64653A25640000008000002084
:103E700073656C65637420202020202020000000E2
:103E80006C696E655F7465737420202020000000EB
:103E9000700000205961773A25362E326600000006
:103EA0006361725F676F5F74657374202000000048
:103EB0006361725F7370696E5F7465737400000094
:103EC0007475726E5F74657374202020200000008A
:103ED000204910B50020086048608860C8601E4B0B
:103EE000C861C1E90430886140391C4C08604860F1
:103EF0008860C8600C611A4AC861C1E90520603158
:103F0000086048608860C860C861C1E904308861A1
:103F10004039086048608860C8600C61C861C1E9C8
:103F2000052060310F4A086048608860C860C86139
:103F3000C1E90420886120314FF081420860486067
:103F40008860C860C861C1E904204FF07E50886174
:103F500010BD0000140700209A99993E0000C0404F
:103F6000000008419A99993F0168486A002200B20E
:103F70004A6270470349002008700C210248FDF78F
:103F8000F5BD000014000020B4000020034901200A
:103F900008700C210248FDF799BD000014000020B4
:103FA000B400002003490020487001460248FDF794
:103FB000DDBD000014000020B400002003490120F2
:103FC000487000210248FDF781BD00001400002068
:103FD000B4000020016070470D4810B5B0F90A0028
:103FE000FCF73EFB00220B4BFCF74BFA00220A4B7E
:103FF000FCF747FA0022094BFCF7B5FAFCF75AFB2D
:10400000FCF720FB0146BDE81040054800F030B841
:104010001800002000408F4000004E40004ED2406B
:10402000D40600200D4810B5B0F90C00FCF718FBC1
:1040300000220B4BFCF725FA00220A4BFCF721FA71
:104040000022094BFCF78FFAFCF734FBFCF7FAFA75
:104050000146BDE81040054800F00AB818000020ED
:1040600000408F4000004E40004ED240F406002039
:104070002DE9F04104460068FCF7DAF8A060B0F1E1
:104080007C5F04DAB0F13F4F01D20020A060E2690A
:10409000054601461046FCF779F81149E06188426F
:1040A00002DA1049884200D9E1612846E168FCF74C
:1040B000BFF8A169FCF7C2F80646E1696069FCF740
:1040C000BDF8074629462069FCF7B8F83946FCF7E1
:1040D0005DF83146FCF75AF8E5606060BDE8F081B4
:1040E00000007A4400007AC4094810B50068FCF763
:1040F000C8FAFCF7A7FA0146064800F011F806498D
:10410000884202DC0549884200D9084610BD0000FB
:1041100070000020540700200000C8420000C8C200
:104120002DE9F04104460068FCF782F81E491F4D56
:104130000246A060884204DD29461046FCF778F864
:1041400006E01B49884204D929461046FCF71EF8B0
:10415000A060A84202DA1749884202D30020A0607A
:10416000E061A568E0692946FCF710F8E0610746C0
:104170002846E168FCF75CF8A169FCF75FF80646A1
:1041800039466069FCF75AF8074629462069FCF76A
:1041900055F83946FBF7FAFF3146FBF7F7FFE560C4
:1041A0006060BDE8F0810000000034430000B343CC
:1041B000000034C30000B3C3134810B500780128D1
:1041C00003D01248007801281CD1114CA078401C63
:1041D000C0B2A070022801D2606B04E00020A07081
:1041E000FFF782FF606380F000410A48FFF7F2FEAC
:1041F0000948616BFFF7EEFEFFF7EEFEA063FFF7E5
:1042000011FFE06310BD0000140000201500002025
:1042100018000020D4060020F40600200000000052
:104220000000000001020304060708090000000066
:10423000010203040000000000000000002F000045
:1042400000000700070000147F147F1400242A7F59
:104250002A120062640813230036495522500000D8
:104260000503000000001C224100000041221C0048
:104270000014083E08140008083E0808000000A0CA
:1042800060000008080808080000606000000020C6
:1042900010080402003E5149453E0000427F4000A4
:1042A000004261514946002141454B31001814122A
:1042B0007F10002745454539003C4A4949300001F7
:1042C0007109050300364949493600064949291E46
:1042D00000003636000000005636000000081422A8
:1042E00041000014141414140000412214080002A8
:1042F0000151090600324959513E007C1211127CCD
:10430000007F49494936003E41414122007F4141F9
:10431000221C007F49494941007F09090901003EEB
:104320004149497A007F0808087F0000417F410029
:10433000002040413F01007F08142241007F40409F
:104340004040007F020C027F007F0408107F003E87
:104350004141413E007F09090906003E4151215E6D
:10436000007F091929460046494949310001017F6A
:104370000101003F4040403F001F2040201F003F00
:104380004038403F006314081463000708700807B2
:1043900000615149454300007F41410000552A55C5
:1043A0002A55000041417F00000402010204004040
:1043B0004040404000000102040000205454547862
:1043C000007F484444380038444444200038444482
:1043D000487F00385454541800087E090102001820
:1043E000A4A4A47C007F080404780000447D40005D
:1043F000004080847D00007F102844000000417F41
:104400004000007C04180478007C0804047800381C
:104410004444443800FC242424180018242418FCA4
:10442000007C0804040800485454542000043F440D
:104430004020003C4040207C001C2040201C003CD0
:104440004030403C004428102844001CA0A0A07C20
:10445000004464544C441414141414140000000058
:1044600000000000000000000000FC000000000050
:1044700002000000000C020C02000000000000001E
:1044800090D0BCD0BC900003000300001824FE4470
:104490008C000302070201001824D8B04C800003EE
:1044A00000010201C038E438E0000102020102020A
:1044B000080600000000000000000000000000F8F6
:1044C0000402000000010204000204F800000004DD
:1044D000020100009060F860900000000100000000
:1044E0002020FC202000000001000000000000004F
:1044F000000008060000000020202020200000000E
:1045000000000000000000000000000200000000A9
:104510000080601C0200040300000000F804040492
:10452000F8000102020201000008FC000000000285
:10453000030200001884442418000302020202004F
:1045400008042424D80001020202010040B088FCC3
:1045500080000000000302003C242424C400010267
:1045600002020100F824242CC00001020202010012
:104570000C04E41C0400000003000000D8242424E0
:10458000D80001020202010038444444F80000034C
:104590000202010000001000000000000200000004
:1045A00000002000000000000600000000205088ED
:1045B0000402000000000102909090909000000022
:1045C00000000000000204885020000201000000EA
:1045D0001804C4241800000002000000F804E49449
:1045E000F80001020202020000E09CF080000203D9
:1045F0000000030204FC2424D8000203020201008C
:10460000F80404040C0001020202010004FC04048A
:10461000F80002030202010004FC24740C000203EF
:104620000202030004FC24740C00020302000000D8
:10463000F0080444CC4000010202010004FC2020E8
:10464000FC040203000003020404FC040400020250
:1046500003020200000404FC040406040403000036
:1046600004FC24D00C0402030200030204FC040036
:104670000000020302020203FC3CC03CFC000300F9
:104680000300030004FC30C4FC0402030200030026
:10469000F8040404F80001020202010004FC2424CE
:1046A0001800020302000000F8848404F8000102EC
:1046B0000207050004FC24649800020302000302C0
:1046C000182424448C000302020201000C04FC04A0
:1046D0000C0000020302000004FC0000FC040001C6
:1046E00002020100047C80E01C04000003000000C2
:1046F0001CE03CE01C00000300030000049C609CE4
:104700000400020300030200041CE01C0400000279
:10471000030200000C84641C040002030202030074
:104720000000FE020200000007040400000E30C07A
:104730000000000000010200000202FE0000000470
:104740000407000000040204000000000000000054
:104750000000000000000808080808080000020027
:1047600000000000000000000040A0A0C000000108
:104770000202030204FC2020C00000030202010028
:1047800000C02020600000010202020000C02024BE
:10479000FC0000010202030200C0A0A0C000000152
:1047A000020202000020F824240400020302020096
:1047B0000040A0A0602000070A0A0A0404FC202090
:1047C000C0000203020003020020E4000000000217
:1047D00003020000000020E40000080808070000B1
:1047E00004FC80E020200203020003020404FC0019
:1047F0000000020203020200E020E020C0000300EB
:104800000300030020E02020C00002030200030296
:1048100000C02020C00000010202010020E0202092
:10482000C000080F0A02010000C02020E0000001C3
:10483000020A0F0820E040202000020302000000CE
:104840000060A0A020000002020203000020F82067
:10485000000000000102020020E00020E000000152
:104860000202030220E0208060200000030100001B
:104870006080E08060000003000300002060806032
:10488000200002030003020020E0208060200808CE
:10489000070100000020A0602000000203020200C7
:1048A000000020DE0200000000070400000000FFFE
:1048B00000000000000F00000002DE2000000004E5
:1048C00007000000020102040402000000000000D2
:1048D00000000000000000000000000000000000D8
:1048E000000000F80000000000000033300000006D
:1048F00000100C06100C0600000000000000000074
:1049000040C07840C0784000043F04043F040400E5
:10491000007088FC08300000001820FF211E0000F5
:10492000F008F000E018000000211C031E211E000A
:1049300000F00888700000001E2123241927211090
:1049400010160E0000000000000000000000000033
:10495000000000E0180402000000000718204000DA
:1049600000020418E00000000040201807000000CA
:10497000404080F0804040000202010F010202002E
:10498000000000F0000000000101011F0101010012
:10499000000000000000000080B070000000000077
:1049A0000000000000000000000101010101010100
:1049B0000000000000000000003030000000000097
:1049C000000000008060180400601806010000006C
:1049D00000E010080810E000000F102020100F0069
:1049E000001010F8000000000020203F20200000F0
:1049F0000070080808887000003028242221300048
:104A000000300888884830000018202020110E004F
:104A10000000C02010F8000000070424243F2400F8
:104A200000F80888880808000019212020110E00CD
:104A300000E0108888180000000F112020110E00DF
:104A400000380808C83808000000003F00000000D7
:104A50000070880808887000001C222121221C0098
:104A600000E010080810E0000000312222110F00C1
:104A7000000000C0C0000000000000303000000056
:104A800000000080000000000000806000000000C6
:104A900000008040201008000001020408102000DF
:104AA000404040404040400004040404040404002A
:104AB00000081020408000000020100804020100BF
:104AC000007048080808F0000000003036010000BF
:104AD000C030C828E810E0000718272423140B0072
:104AE0000000C038E0000000203C230202273820EC
:104AF00008F8888888700000203F202020110E00D0
:104B0000C0300808080838000718202020100800C6
:104B100008F808080810E000203F202020100F00AF
:104B200008F88888E8081000203F2020232018007B
:104B300008F88888E8081000203F200003000000E3
:104B4000C03008080838000007182020221E020084
:104B500008F808000008F808203F210101213F2043
:104B6000000808F8080800000020203F202000006E
:104B700000000808F8080800C08080807F0000005E
:104B800008F888C028180800203F20012638200097
:104B900008F8080000000000203F202020203000FE
:104BA00008F8F800F8F80800203F003F003F200018
:104BB00008F830C00008F808203F200007183F0020
:104BC000E01008080810E0000F10202020100F004F
:104BD00008F808080808F000203F21010101000042
:104BE000E01008080810E0000F18242438504F0087
:104BF00008F8888888887000203F2000030C302047
:104C000000708808080838000038202121221C0084
:104C1000180808F8080818000000203F20000000CD
:104C200008F808000008F808001F202020201F00B6
:104C30000878880000C83808000007380E01000016
:104C4000F80800F80008F800033C0700073C0300E0
:104C5000081868808068180820302C03032C302046
:104C60000838C800C83808000000203F20000000B5
:104C700010080808C838080020382621202018000D
:104C8000000000FE020202000000007F40404000E1
:104C9000000C30C000000000000000010638C00019
:104CA00000020202FE000000004040407F000000C1
:104CB00000000402020204000000000000000000E6
:104CC00000000000000000008080808080808080E4
:104CD00000020204000000000000000000000000CC
:104CE00000008080808000000019242222223F20C2
:104CF00008F8008080000000003F112020110E0005
:104D00000000008080800000000E11202020110093
:104D1000000000808088F800000E112020103F2045
:104D20000000808080800000001F222222221300C9
:104D3000008080F0888888180020203F2020000014
:104D40000000808080808000006B949494936000C9
:104D500008F8008080800000203F210000203F20D4
:104D600000809898000000000020203F20200000D4
:104D7000000000809898000000C08080807F0000C4
:104D800008F8000080808000203F24022D302000A1
:104D9000000808F8000000000020203F202000004C
:104DA0008080808080808000203F20003F20003F66
:104DB0008080008080800000203F210000203F2074
:104DC0000000808080800000001F202020201F0025
:104DD000808000808000000080FFA12020110E0054
:104DE0000000008080808000000E112020A0FF8045
:104DF000808080008080800020203F2120000100F2
:104E00000000808080808000003324242424190046
:104E1000008080E0808000000000001F2020000053
:104E20008080000000808000001F202020103F2094
:104E3000808080000080808000010E300806010024
:104E400080800080008080800F300C030C300F00C9
:104E500000808000808080000020312E0E312000F4
:104E6000808080000080808080818E701806010024
:104E700000808080808080000021302C2221300042
:104E800000000000807C020200000000003F404063
:104E900000000000FF00000000000000FF00000014
:104EA0000002027C800000000040403F0000000043
:104EB00000060101020204040000000000000000DE
:104EC00000000000000000000000000000000000E2
:104ED00000000000000000000000000000000000D2
:104EE000000000000000000000F0F0F000000000F2
:104EF0000000000000017F01000000000000000031
:104F0000001C1C1C0000000000008060301C8C6035
:104F1000301C0C0000000000000000000000000039
:104F2000000000000000000000000000000000E0A1
:104F30000000000000E000000086E69F868686866E
:104F4000E69F860000011F01010101011F01010010
:104F5000000080C06020F820E0C0000000000307CF
:104F60000C18FF70E18100000000070F10107F1087
:104F70000F0700008060206080000000E02000003B
:104F80000F3020309F70DC371030C0000000100E52
:104F900003000718101807000000C02020E0C00020
:104FA0000000000080E01F38E88703C43C040000D4
:104FB000070F1810100B070D1010080000808C4C04
:104FC00038000000000000000000000000000000A9
:104FD00000000000000000000000000000000000D1
:104FE00000000000000080E0300804000000000025
:104FF00000FEFF0100000000000000000000030FA1
:105000001820400000040830E0800000000000008C
:105010000000000001FFFE0000000000004020181A
:105020000F03000000000000000000000000C000AE
:1050300000000000004266663C18FF183C666642AD
:10504000000000000000030000000000000000005D
:105050000000800000000000001010101010FF1071
:1050600010101010000000000000030000000000FD
:105070000000000000000000000000000000000030
:10508000000000000000000000808C4C3800000090
:105090000000000000000000000000000000000010
:1050A0000010101010101010101010000000000060
:1050B00000000000000000000000000000000000F0
:1050C00000000000000000000000000000000000E0
:1050D00000001C1C1C00000000000000000000007C
:1050E00000000000E0380C000000000080701C038D
:1050F000000000000060380E010000000000000009
:10510000000080C060202060C080000000FEFF0121
:105110000000000001FFFE000001070E181010182B
:105120000E0701000000808080C0E0000000000049
:105130000000000000FFFF00000000000000101051
:10514000101F1F1010100000008040202020206041
:10515000C080000000030300804020381F070000CB
:10516000001C1A1918181818181F00000080C020F9
:10517000202060C080000000000303001010182FE2
:10518000E780000000070F10101010180F07000034
:10519000000000000000C0E0F000000000C0B08887
:1051A000868180FFFF808000000000000010101F3B
:1051B0001F1010000000E060606060606060000030
:1051C00000003F1008080818F0E0000000070B106E
:1051D0001010101C0F030000000080C04020202091
:1051E000E0C0000000FCFF211008080818F0E000F3
:1051F0000001070C18101010080F03000000C0E099
:105200006060606060E06000000003000000E01883
:105210000700000000000000001F1F000000000049
:105220000080C0602020202060C080000087EF2C1C
:105230001818303068CF830000070F0810101010C6
:10524000180F07000000C0C020202020C0800000F0
:10525000001F3F604040402010FFFE0000000C1C7B
:10526000101010080F0300000000000000000000F4
:105270000000000000000000000E0E0E0000000004
:1052800000000000001C1C1C0000000000000000CA
:10529000000000000000000000000000000C0C00F6
:1052A000000000000000000000583800000000006E
:1052B00000000000000000804020100000001028C6
:1052C0004482010000000000000000000000010214
:1052D00004081000000000000000000000000000B2
:1052E0000084848484848484848484000000000096
:1052F00000000000000000000000102040800000BE
:10530000000000000000000000000182442810009E
:1053100000001008040201000000000000C020206E
:105320001010101030E0C0000003030000F010085F
:105330000C070300000000001C1C1C000000000003
:10534000000000C0406020202040C00000FCFF01A1
:10535000F00E03C1FE03807F0001070E081111103B
:10536000110904020000000080E0E00000000000DD
:105370000000807C4340477FF880000010181F1019
:1053800000000000131F1C1020E0E02020202060FF
:10539000C080000000FFFF10101010182FE78000E1
:1053A000101F1F1010101010180F0700000080C0F1
:1053B000402020202060E00000FCFF0100000000F1
:1053C000000001000001070E18101010080403006F
:1053D00020E0E02020202040C080000000FFFF00EF
:1053E0000000000001FFFE00101F1F101010180821
:1053F0000E07010020E0E020202020202060800017
:1054000000FFFF101010107C00000000101F1F1084
:10541000101010101018060020E0E020202020209E
:105420006060800000FFFF101010107C0000010081
:10543000101F1F100000000000000000000080C0CE
:105440006020202040E0000000FCFF010000404000
:10545000C0C140400001070E181010100F0F0000CF
:1054600020E0E0200000000020E0E02000FFFF102E
:105470001010101010FFFF00101F1F100000000080
:10548000101F1F100000202020E0E020202000003E
:105490000000000000FFFF000000000000001010EE
:1054A000101F1F101010000000000000202020E03E
:1054B000E020202000000000000000FFFF000000AE
:1054C0000060E0808080C07F3F00000020E0E0209E
:1054D000000020A06020200000FFFF30187CE3C007
:1054E00000000000101F1F10000001131F1C1810E7
:1054F00020E0E020000000000000000000FFFF00AE
:105500000000000000000000101F1F1010101010FD
:105510001018060020E0E0E000000000E0E0E020DD
:1055200000FF013FFEC0E01E01FFFF00101F100042
:10553000031F0300101F1F1020E0E0C00000000048
:105540000020E02000FF0003071C78E08000FF003F
:10555000101F100000000000030F1F00000080C09B
:1055600060202060C080000000FEFF0100000000FD
:1055700000FFFE000001070E181010180C070100B4
:1055800020E0E0202020202060C0800000FFFF20DD
:1055900020202020301F0F00101F1F1000000000CF
:1055A00000000000000080C060202060C08000007B
:1055B00000FEFF010000000000FFFE000001070EDA
:1055C0001111133C7C67210020E0E02020202020E6
:1055D00060C0800000FFFF101030F0D0080F0700FF
:1055E000101F1F10000000030F1C10100080C0606F
:1055F000202020204040E00000070F0C1818303019
:1056000060E08100001F0C0810101010180F070038
:105610008060202020E0E020202060800100000049
:1056200000FFFF000000000100000000101F1F101D
:105630000000000020E0E020000000000020E0204A
:1056400000FFFF00000000000000FF0000070F182F
:1056500010101010100807002060E0E0200000008B
:1056600020E060200000077FF88000807C030000BD
:1056700000000000071F1C070000000020E0E020E1
:1056800000E0E0200020E0200007FFF8E01FFFFC22
:10569000E01F00000000031F0300011F03000000C3
:1056A000002060E0A0000020E06020000000000377
:1056B0008F7CF8C6010000000010181E13000117AF
:1056C0001F1810002060E0E02000000020E06020B3
:1056D000000001073EF8E01807000000000000107D
:1056E000101F1F101000000000806020202020A04C
:1056F000E0E0200000000000C0F03E0F03000000CA
:1057000000101C1F171010101018060000000000D9
:1057100000FC0404040404000000000000FF00007A
:105720000000000000000000007F404040404000BA
:10573000000010E000000000000000000000000079
:10574000031C608000000000000000000000000357
:105750000C70800000000404040404FC000000003D
:1057600000000000000000FF0000000000004040BA
:105770004040407F0000000000000010080C040CB6
:105780000810000000000000000000000000000001
:105790000000000000000000000000000000000009
:1057A00000000000000000000000000000000000F9
:1057B00000000000808080808080808080808080E9
:1057C00000000004040808000000000000000000C1
:1057D00000000000000000000000000000000000C9
:1057E00000000000000000000000000000000000B9
:1057F000000098D844642424FCF80000000F1F180F
:10580000101010081F1F10180020E0F0000000000A
:10581000000000000000FFFF180804040CF8F0006E
:1058200000001F0F18101010180F030000000000D8
:10583000000000000000000000E0F8180404043C30
:105840003800000000030F0C1010101008060000B4
:105850000000000000000020E0F0000000E0F81C64
:1058600004040408FFFF000000030F1810101008C4
:105870001F0F0800000000000000000000000000F2
:105880000000E0F8484444444C7870000000030FE6
:105890000C181010100804000000000080C06020E8
:1058A00020E0C00000040404FFFF0404040400001E
:1058B000000010101F1F101010000000000000005A
:1058C0000000000000000000000070F88C04048C50
:1058D000F874040C007076CF8D8D8D89C8787000B7
:1058E0000020E0F000000000000000000000FFFFCA
:1058F00008040404FCF8000000101F1F1000001032
:105900001F1F100000000000006060000000000089
:105910000000040404FCFC00000000000000101063
:10592000101F1F1010100000000000000000006099
:105930006000000000000000040404FCFC00000003
:105940000000C0C08080C07F3F0000000020E0F069
:1059500000000000000000000000FFFF80C0F41CF9
:105960000404000000101F1F1100031F1C10100072
:105970000000202020E0F0000000000000000000F7
:1059800000FFFF000000000000001010101F1F109B
:1059900010100000000000000000000000000000E7
:1059A00004FCFC0804FCFC0804FCFC00101F1F1095
:1059B000001F1F10001F1F1000000000000000004B
:1059C000000000000004FCFC08080404FCF80000CF
:1059D00000101F1F100000101F1F1000000000000B
:1059E000000000000000000000E0F0180C04040CAF
:1059F00018F0E00000030F0C101010100C0F030043
:105A00000000000000000000000000000004FCFC9A
:105A1000080404040CF8F0000080FFFF88901010C8
:105A20001C0F030000000000000000000000000048
:105A300000E0F81C04040408F8FC000000030F1840
:105A400010109088FFFF80000000000000000000A0
:105A500000000000040404FCFC100804040C0C000A
:105A60001010101F1F101010000000000000000098
:105A7000000000000000000000003078CCC48484E6
:105A8000840C1C0000001E1810101011190F0600C5
:105A90000000000000C0000000000000000404043A
:105AA000FFFF040404000000000000000F1F10109E
:105AB000100C0000000000000000000000000000CA
:105AC0000004FCFE00000004FCFE000000000F1FAC
:105AD000181010081F0F0800000000000000000050
